:020000020000FC
:1000000026C018C017C016C015C01CC013C012C02F
:1000100011C010C00FC00EC00DC00DC00BC00AC073
:1000200009C008C007C006C005C004C003C002C0A4
:1000300001C000C018958FB6119711F48260DA01E3
:100040008FBE189548994498489B449A18950FEF8D
:100050000DBF04E00EBFC0E0D1E00FEF12E0299227
:100060000C171D07E1F7882722240FEF402E48EDDB
:1000700050E0B52FA42F84D0789401E00093330092
:10008000E0D04C99FDCFDDD04C9BFDCF8E7F569AB2
:100090002998539A459AF2E0E0E745915591659188
:1000A000E590BBD0B52FA42F6F3F11F4CAD0F5CF88
:1000B000459856986E3F49F4C4D045915591659145
:1000C000E590ABD0B52FA42FF5CF459A26D04C9B09
:1000D00016C03DD026D04C9B12C039D026D04C9BA8
:1000E0000EC035D026D04C9B0AC031D026D04C9BB8
:1000F00006C02DD026D04C9B02C029D0E7CFA1D07E
:1001000092D048ED50E0B52FA42F9BD04C9BFDCF53
:1001100091D097D0B5CF0000FECF93D0569A539888
:1001200008958FD0299A2B9808958BD05698229AAB
:10013000089587D05D982B9A089583D02298539A7A
:100140000895459A7ED045985D9A2998089580FD36
:1001500016C0662339F4459155916591E5905DD0BF
:10016000B52FA42F662311F4816009C05093C600F7
:100170000091C00005FFFCCF4093C6006A9508952A
:100180005E9856982A9822985B9853985D9A559A4B
:10019000299A219A2B9A239A45983D9A44983C9AF9
:1001A0005098589A47BC01EC04BD00E000938700CA
:1001B0000FEF0093860002E3009380004092B300AB
:1001C00001E30093B00000E006BD0093850002E06B
:1001D0000093840004E00093B20001E011E121E00B
:1001E00005BD109381002093B10002E8E02E15D0E8
:1001F0002092C50008E00093C40008E00093C1000D
:1002000006E00093C20001E000936F0001E000935C
:100210006D0004E0009368000895E7BCE0928A0056
:10022000E092B40008955D9829982B9856982298EA
:10023000539808955D9A299A2B9A56982298539824
:10024000089581FFFECF8D7F089508EC07BDF2DF92
:1002500048ED50E0F6DF4C99FDCFF3DF4C9BFDCF2E
:100260004AE050E0EEDF569A2998EBDFEECF089592
:10027000000FFFC8000AFFFF0096FFBE0032FFC05C
:100280000032FFC20032FFC40032FFC60032FFC896
:1002900000FAFEFF0006FEC80006FEFF0032FEBEAA
:1002A0000032FEC00032FEC20032FEC40032FEC682
:1002B0000096FEFFE4030196E4030196E402019632
:1002C000E2020196E0020196DF020196DE0201964B
:1002D000DC020196DB020196DA020196D902019650
:1002E000D8020196D7020196D6020196D502019650
:1002F000D4020196D3020196D2020196D102019650
:10030000D0020196CF020196CE020196CD0201964F
:10031000CC020196CB020196CA020196C90201964F
:10032000C8020196C7020196C6020196C50201964F
:10033000C4020196C3020196C2020196C10201964F
:10034000C0020196BF020196BE020196BD0201964F
:10035000BC020196BB020196BA020196B90201964F
:10036000B8020196B7020196B6020196B50201964F
:10037000B4020196B3020196B2020196B10201964F
:10038000B0020196AF020196AE020196AD0201964F
:10039000AC020196AB020196AA020196A90201964F
:1003A000A8020196A7020196A6020196A50201964F
:1003B000A4020196A3020196A2020196A10201964F
:1003C000A00201969F0201969E0201969D0201964F
:1003D0009C0201969B0201969A020196990201964F
:1003E000980201969702019696020196950201964F
:1003F000940201969302019692020196910201964F
:10040000900201968F0201968E0201968D0201964E
:100410008C0201968B0201968A020196890201964E
:10042000880201968702019686020196850201964E
:10043000840201968302019682020196810201964E
:10044000800201967F0201967E0201967D0201964E
:100450007C0201967B0201967A020196790201964E
:10046000780201967702019676020196750201964E
:10047000740201967302019672020196710201964E
:10048000700201966F020196700201966E0201964B
:100490006D0201966C0201966B0201966A0201964A
:1004A000690201966802019667020196660201964A
:1004B000650201966402019663020196620201964A
:1004C00061020196600201965F0201965E0201964A
:1004D0005D0201965C0201965B0201965A0201964A
:1004E000590201965802019657020196560201964A
:1004F000550201965402019653020196520201964A
:1005000051020196500201964F0201964E02019649
:100510004D0201964C0201964B0201964A02019649
:100520004902019648020196470201964602019649
:100530004502019644020196430201964202019649
:1005400041020196400201963F0201963E02019649
:100550003D0201963C0201963B0201963A02019649
:100560003902019638020196370201963602019649
:100570003502019634020196330201963202019649
:1005800031020196300201962F0201962E02019649
:100590002D0201962C0201962B0201962A02019649
:1005A0002902019628020196270201962602019649
:1005B0002502019624020196230201962202019649
:1005C00021020196200201961F0201961E02019649
:1005D0001D0201961C0201961B0201961A02019649
:1005E0001902019618020196170201961602019649
:1005F0001502019614020196130201961202019649
:1006000011020196100201960F0201960E02019648
:100610000D0201960C0201960B0201960C02019646
:100620000A02019609020196080201960702019644
:100630000602019605020196040201960302019644
:10064000020201960102019600020196FF01019645
:10065000FE010196FD010196FC010196FB01019648
:10066000FA010196F9010196F8010196F701019648
:10067000F6010196F5010196F4010196F301019648
:10068000F2010196F1010196F0010196EF01019648
:10069000EE010196ED010196EC010196EB01019648
:1006A000EA010196E9010196E8010196E701019648
:1006B000E6010196E5010196E4010196E301019648
:1006C000E2010196E1010196E0010196DF01019648
:1006D000DE010196DD010196DC010196DB01019648
:1006E000DA010196D9010196D8010196D701019648
:1006F000D6010196D5010196D4010196D301019648
:10070000D2010196D1010196D0010196CF01019647
:10071000CE010196CD010196CC010196CB01019647
:10072000CA010196C9010196C8010296C701029645
:10073000C6010296C5010296C4010296C301029643
:10074000C2010296C1010296C0010296BF01029643
:10075000BE010296BD010296BC010296BB01029643
:10076000BA010296B9010296B8010296B701029643
:10077000B6010296B5010296B4010296B301029643
:10078000B2010296B1010296B0010296AF01029643
:10079000AE010296AD010296AC010296AB01029643
:1007A000AA010296A9010296A8010296A701029643
:1007B000A6010296A5010296A4010296A301029643
:1007C000A2010296A1010296A00102969F01029643
:1007D0009E0102969D0102969C0102969B01029643
:1007E0009A01029699010296980102969701029643
:1007F0009601029695010296940102969301029643
:100800009201029691010296900102968F01029642
:100810008E0102968D0102968C0102968B01029642
:100820008A01029689010296880102968701029642
:100830008601029685010296840102968301029642
:100840008201029681010296800102967F01029642
:100850007E0102967D0102967C0102967B01029642
:100860007A01029679010296780102967701029642
:100870007601029675010296740102967301029642
:100880007201029671010296700102966F01029642
:10089000700102966E0102966D0102966C0102963D
:1008A0006B0102966A01029669010296680102963E
:1008B000670102966601029665010296640102963E
:1008C000630102966201029661010296600102963E
:1008D0005F0102965E0102965D0102965C0102963E
:1008E0005B0102965A01029659010296580102963E
:1008F000570102965601029655010296540102963E
:10090000530102965201029651010296500102963D
:100910004F0102964E0102964D0102964C0102963D
:100920004B0102964A01029649010296480102963D
:10093000470102964601029645010296440102963D
:10094000430102964201029641010296400102963D
:100950003F0102963E0102963D0102963C0102963D
:100960003B0102963A01029639010296380102963D
:10097000370102963601029635010296340102963D
:10098000330102963201029631010296300102963D
:100990002F0102962E0102962D0102962C0102963D
:1009A0002B0102962A01029629010296280102963D
:1009B000270102962601029625010296240102963D
:1009C000230102962201029621010296200102963D
:1009D0001F0102961E0102961D0102961C0102963D
:1009E0001B0102961A01029619010296180102963D
:1009F000170102961601029615010296140102963D
:100A0000130102961201029611010296100102963C
:100A10000F0102960E0102960D0102960C0102963C
:100A20000B0102960C0102960A0102960901029638
:100A30000801029607010296060102960501029638
:100A40000401029603010296020102960101029638
:100A500000010296FF000296FE000296FD0002963B
:100A6000FC000296FB000296FA000296F90002963C
:100A7000F8000296F7000296F6000296F50002963C
:100A8000F4000296F3000296F2000296F10002963C
:100A9000F0000296EF000296EE000296ED0002963C
:100AA000EC000296EB000296EA000296E90002963C
:100AB000E8000296E7000296E6000296E50002963C
:100AC000E4000296E3000296E2000296E10002963C
:100AD000E0000296DF000296DE000296DD0002963C
:100AE000DC000296DB000296DA000296D90002963C
:100AF000D8000296D7000296D6000296D50002963C
:100B0000D4000296D3000296D2000296D10002963B
:100B1000D0000296CF000296CE000296CD0002963B
:100B2000CC000296CB000296CA000296C90002963B
:100B3000C8000296C7000296C6000296C50002963B
:100B4000C4000296C3000296C2000296C10002963B
:100B5000C0000296BF000296BE000296BD0002963B
:100B6000BC000296BB000296BA000296B90002963B
:100B7000B8000296B7000296B6000296B50002963B
:100B8000B4000296B3000296B2000296B10002963B
:100B9000B0000296AF000296AE000296AD0002963B
:100BA000AC000296AB000296AA000296A90002963B
:100BB000A8000296A7000296A6000296A50002963B
:100BC000A4000296A3000296A2000296A10002963B
:100BD000A00002969F0002969E0002969D0002963B
:100BE0009C0002969B0002969A000296990002963B
:100BF000980002969700029696000296950002963B
:100C0000940002969300029692000296910002963A
:100C1000900002968F0002968E0002968D0002963A
:100C20008C0002968B0002968A000296890002963A
:100C3000880002968700029686000296850002963A
:100C4000840002968300029682000296810002963A
:100C5000800002967F0002967E0002967D0002963A
:100C60007C0002967B0002967A000296790002963A
:100C70007800039677000396760003967500039636
:100C80007400039673000396720003967100049635
:100C9000700004966F0004966E0004966D00049632
:100CA0006C0004966B0005966A000596690005962F
:100CB000680005966700059666000596650005962E
:100CC000640006966300069662000696610006962A
:100CD000600006965F0006965E0006965D0006962A
:100CE0005C0006965B0006965A0006965900079629
:100CF0005800079657000796560007965500079626
:100D00005400079653000796520008965100089623
:100D1000500008964F0008964E0008964D00089621
:100D20004C0008964B0008964A0008964900099620
:100D3000480009964700099646000996450009961D
:100D400044000A9643000A9642000B9641000B9617
:100D500040000B963F000C963E000D963D000F960E
:100D60003C0011963B0013963A00159639001796F1
:100D70003800199637001B9636001D9635001F96D1
:100D800034002196330023963200269631002996AE
:100D900030002C962F0030962E0034962D00389679
:100DA0002C003D962B0043962A004A962900529625
:080DB0002900009B2900009BB3
:00000001FF
